{
  "contractName": "UniqueAssetNFT",
  "abi": [
    {
      "inputs": [],
      "stateMutability": "nonpayable",
      "type": "constructor"
    },
    {
      "anonymous": false,
      "inputs": [
        {
          "indexed": true,
          "internalType": "address",
          "name": "owner",
          "type": "address"
        },
        {
          "indexed": true,
          "internalType": "address",
          "name": "approved",
          "type": "address"
        },
        {
          "indexed": true,
          "internalType": "uint256",
          "name": "tokenId",
          "type": "uint256"
        }
      ],
      "name": "Approval",
      "type": "event"
    },
    {
      "anonymous": false,
      "inputs": [
        {
          "indexed": true,
          "internalType": "address",
          "name": "owner",
          "type": "address"
        },
        {
          "indexed": true,
          "internalType": "address",
          "name": "operator",
          "type": "address"
        },
        {
          "indexed": false,
          "internalType": "bool",
          "name": "approved",
          "type": "bool"
        }
      ],
      "name": "ApprovalForAll",
      "type": "event"
    },
    {
      "anonymous": false,
      "inputs": [
        {
          "indexed": true,
          "internalType": "address",
          "name": "previousOwner",
          "type": "address"
        },
        {
          "indexed": true,
          "internalType": "address",
          "name": "newOwner",
          "type": "address"
        }
      ],
      "name": "OwnershipTransferred",
      "type": "event"
    },
    {
      "anonymous": false,
      "inputs": [
        {
          "indexed": true,
          "internalType": "address",
          "name": "from",
          "type": "address"
        },
        {
          "indexed": true,
          "internalType": "address",
          "name": "to",
          "type": "address"
        },
        {
          "indexed": true,
          "internalType": "uint256",
          "name": "tokenId",
          "type": "uint256"
        }
      ],
      "name": "Transfer",
      "type": "event"
    },
    {
      "inputs": [
        {
          "internalType": "address",
          "name": "to",
          "type": "address"
        },
        {
          "internalType": "uint256",
          "name": "tokenId",
          "type": "uint256"
        }
      ],
      "name": "approve",
      "outputs": [],
      "stateMutability": "nonpayable",
      "type": "function"
    },
    {
      "inputs": [
        {
          "internalType": "address",
          "name": "owner",
          "type": "address"
        }
      ],
      "name": "balanceOf",
      "outputs": [
        {
          "internalType": "uint256",
          "name": "",
          "type": "uint256"
        }
      ],
      "stateMutability": "view",
      "type": "function"
    },
    {
      "inputs": [
        {
          "internalType": "uint256",
          "name": "tokenId",
          "type": "uint256"
        }
      ],
      "name": "getApproved",
      "outputs": [
        {
          "internalType": "address",
          "name": "",
          "type": "address"
        }
      ],
      "stateMutability": "view",
      "type": "function"
    },
    {
      "inputs": [
        {
          "internalType": "address",
          "name": "owner",
          "type": "address"
        },
        {
          "internalType": "address",
          "name": "operator",
          "type": "address"
        }
      ],
      "name": "isApprovedForAll",
      "outputs": [
        {
          "internalType": "bool",
          "name": "",
          "type": "bool"
        }
      ],
      "stateMutability": "view",
      "type": "function"
    },
    {
      "inputs": [],
      "name": "name",
      "outputs": [
        {
          "internalType": "string",
          "name": "",
          "type": "string"
        }
      ],
      "stateMutability": "view",
      "type": "function"
    },
    {
      "inputs": [],
      "name": "owner",
      "outputs": [
        {
          "internalType": "address",
          "name": "",
          "type": "address"
        }
      ],
      "stateMutability": "view",
      "type": "function"
    },
    {
      "inputs": [
        {
          "internalType": "uint256",
          "name": "tokenId",
          "type": "uint256"
        }
      ],
      "name": "ownerOf",
      "outputs": [
        {
          "internalType": "address",
          "name": "",
          "type": "address"
        }
      ],
      "stateMutability": "view",
      "type": "function"
    },
    {
      "inputs": [],
      "name": "renounceOwnership",
      "outputs": [],
      "stateMutability": "nonpayable",
      "type": "function"
    },
    {
      "inputs": [
        {
          "internalType": "address",
          "name": "from",
          "type": "address"
        },
        {
          "internalType": "address",
          "name": "to",
          "type": "address"
        },
        {
          "internalType": "uint256",
          "name": "tokenId",
          "type": "uint256"
        }
      ],
      "name": "safeTransferFrom",
      "outputs": [],
      "stateMutability": "nonpayable",
      "type": "function"
    },
    {
      "inputs": [
        {
          "internalType": "address",
          "name": "from",
          "type": "address"
        },
        {
          "internalType": "address",
          "name": "to",
          "type": "address"
        },
        {
          "internalType": "uint256",
          "name": "tokenId",
          "type": "uint256"
        },
        {
          "internalType": "bytes",
          "name": "data",
          "type": "bytes"
        }
      ],
      "name": "safeTransferFrom",
      "outputs": [],
      "stateMutability": "nonpayable",
      "type": "function"
    },
    {
      "inputs": [
        {
          "internalType": "address",
          "name": "operator",
          "type": "address"
        },
        {
          "internalType": "bool",
          "name": "approved",
          "type": "bool"
        }
      ],
      "name": "setApprovalForAll",
      "outputs": [],
      "stateMutability": "nonpayable",
      "type": "function"
    },
    {
      "inputs": [
        {
          "internalType": "bytes4",
          "name": "interfaceId",
          "type": "bytes4"
        }
      ],
      "name": "supportsInterface",
      "outputs": [
        {
          "internalType": "bool",
          "name": "",
          "type": "bool"
        }
      ],
      "stateMutability": "view",
      "type": "function"
    },
    {
      "inputs": [],
      "name": "symbol",
      "outputs": [
        {
          "internalType": "string",
          "name": "",
          "type": "string"
        }
      ],
      "stateMutability": "view",
      "type": "function"
    },
    {
      "inputs": [
        {
          "internalType": "uint256",
          "name": "tokenId",
          "type": "uint256"
        }
      ],
      "name": "tokenURI",
      "outputs": [
        {
          "internalType": "string",
          "name": "",
          "type": "string"
        }
      ],
      "stateMutability": "view",
      "type": "function"
    },
    {
      "inputs": [
        {
          "internalType": "address",
          "name": "from",
          "type": "address"
        },
        {
          "internalType": "address",
          "name": "to",
          "type": "address"
        },
        {
          "internalType": "uint256",
          "name": "tokenId",
          "type": "uint256"
        }
      ],
      "name": "transferFrom",
      "outputs": [],
      "stateMutability": "nonpayable",
      "type": "function"
    },
    {
      "inputs": [
        {
          "internalType": "address",
          "name": "newOwner",
          "type": "address"
        }
      ],
      "name": "transferOwnership",
      "outputs": [],
      "stateMutability": "nonpayable",
      "type": "function"
    },
    {
      "inputs": [
        {
          "internalType": "address",
          "name": "recipient",
          "type": "address"
        },
        {
          "internalType": "string",
          "name": "hash",
          "type": "string"
        },
        {
          "internalType": "string",
          "name": "tokenURI",
          "type": "string"
        }
      ],
      "name": "mintAssetNFT",
      "outputs": [
        {
          "internalType": "uint256",
          "name": "",
          "type": "uint256"
        }
      ],
      "stateMutability": "nonpayable",
      "type": "function"
    }
  ],
  "bytecode": "0x60806040523480156200001157600080fd5b506040518060400160405280600e81526020017f556e6971756541737365744e46540000000000000000000000000000000000008152506040518060400160405280600381526020017f55414e000000000000000000000000000000000000000000000000000000000081525081600090816200008f919062000412565b508060019081620000a1919062000412565b505050620000c4620000b8620000ca60201b60201c565b620000d260201b60201c565b620004f9565b600033905090565b6000600760009054906101000a900473ffffffffffffffffffffffffffffffffffffffff16905081600760006101000a81548173ffffffffffffffffffffffffffffffffffffffff021916908373ffffffffffffffffffffffffffffffffffffffff1602179055508173ffffffffffffffffffffffffffffffffffffffff168173ffffffffffffffffffffffffffffffffffffffff167f8be0079c531659141344cd1fd0a4f28419497f9722a3daafe3b4186f6b6457e060405160405180910390a35050565b600081519050919050565b7f4e487b7100000000000000000000000000000000000000000000000000000000600052604160045260246000fd5b7f4e487b7100000000000000000000000000000000000000000000000000000000600052602260045260246000fd5b600060028204905060018216806200021a57607f821691505b60208210810362000230576200022f620001d2565b5b50919050565b60008190508160005260206000209050919050565b60006020601f8301049050919050565b600082821b905092915050565b6000600883026200029a7fffffffffffffffffffffffffffffffffffffffffffffffffffffffffffffffff826200025b565b620002a686836200025b565b95508019841693508086168417925050509392505050565b6000819050919050565b6000819050919050565b6000620002f3620002ed620002e784620002be565b620002c8565b620002be565b9050919050565b6000819050919050565b6200030f83620002d2565b620003276200031e82620002fa565b84845462000268565b825550505050565b600090565b6200033e6200032f565b6200034b81848462000304565b505050565b5b8181101562000373576200036760008262000334565b60018101905062000351565b5050565b601f821115620003c2576200038c8162000236565b62000397846200024b565b81016020851015620003a7578190505b620003bf620003b6856200024b565b83018262000350565b50505b505050565b600082821c905092915050565b6000620003e760001984600802620003c7565b1980831691505092915050565b6000620004028383620003d4565b9150826002028217905092915050565b6200041d8262000198565b67ffffffffffffffff811115620004395762000438620001a3565b5b62000445825462000201565b6200045282828562000377565b600060209050601f8311600181146200048a576000841562000475578287015190505b620004818582620003f4565b865550620004f1565b601f1984166200049a8662000236565b60005b82811015620004c4578489015182556001820191506020850194506020810190506200049d565b86831015620004e45784890151620004e0601f891682620003d4565b8355505b6001600288020188555050505b505050505050565b61302180620005096000396000f3fe608060405234801561001057600080fd5b506004361061010b5760003560e01c8063715018a6116100a2578063b88d4fde11610071578063b88d4fde146102a4578063c87b56dd146102c0578063e985e9c5146102f0578063f2fde38b14610320578063fa8115091461033c5761010b565b8063715018a6146102425780638da5cb5b1461024c57806395d89b411461026a578063a22cb465146102885761010b565b806323b872dd116100de57806323b872dd146101aa57806342842e0e146101c65780636352211e146101e257806370a08231146102125761010b565b806301ffc9a71461011057806306fdde0314610140578063081812fc1461015e578063095ea7b31461018e575b600080fd5b61012a60048036038101906101259190611d35565b61036c565b6040516101379190611d7d565b60405180910390f35b61014861044e565b6040516101559190611e28565b60405180910390f35b61017860048036038101906101739190611e80565b6104e0565b6040516101859190611eee565b60405180910390f35b6101a860048036038101906101a39190611f35565b610526565b005b6101c460048036038101906101bf9190611f75565b61063d565b005b6101e060048036038101906101db9190611f75565b61069d565b005b6101fc60048036038101906101f79190611e80565b6106bd565b6040516102099190611eee565b60405180910390f35b61022c60048036038101906102279190611fc8565b610743565b6040516102399190612004565b60405180910390f35b61024a6107fa565b005b61025461080e565b6040516102619190611eee565b60405180910390f35b610272610838565b60405161027f9190611e28565b60405180910390f35b6102a2600480360381019061029d919061204b565b6108ca565b005b6102be60048036038101906102b991906121c0565b6108e0565b005b6102da60048036038101906102d59190611e80565b610942565b6040516102e79190611e28565b60405180910390f35b61030a60048036038101906103059190612243565b610a54565b6040516103179190611d7d565b60405180910390f35b61033a60048036038101906103359190611fc8565b610ae8565b005b61035660048036038101906103519190612324565b610b6b565b6040516103639190612004565b60405180910390f35b60007f80ac58cd000000000000000000000000000000000000000000000000000000007bffffffffffffffffffffffffffffffffffffffffffffffffffffffff1916827bffffffffffffffffffffffffffffffffffffffffffffffffffffffff1916148061043757507f5b5e139f000000000000000000000000000000000000000000000000000000007bffffffffffffffffffffffffffffffffffffffffffffffffffffffff1916827bffffffffffffffffffffffffffffffffffffffffffffffffffffffff1916145b80610447575061044682610c17565b5b9050919050565b60606000805461045d906123de565b80601f0160208091040260200160405190810160405280929190818152602001828054610489906123de565b80156104d65780601f106104ab576101008083540402835291602001916104d6565b820191906000526020600020905b8154815290600101906020018083116104b957829003601f168201915b5050505050905090565b60006104eb82610c81565b6004600083815260200190815260200160002060009054906101000a900473ffffffffffffffffffffffffffffffffffffffff169050919050565b6000610531826106bd565b90508073ffffffffffffffffffffffffffffffffffffffff168373ffffffffffffffffffffffffffffffffffffffff16036105a1576040517f08c379a000000000000000000000000000000000000000000000000000000000815260040161059890612481565b60405180910390fd5b8073ffffffffffffffffffffffffffffffffffffffff166105c0610ccc565b73ffffffffffffffffffffffffffffffffffffffff1614806105ef57506105ee816105e9610ccc565b610a54565b5b61062e576040517f08c379a000000000000000000000000000000000000000000000000000000000815260040161062590612513565b60405180910390fd5b6106388383610cd4565b505050565b61064e610648610ccc565b82610d8d565b61068d576040517f08c379a0000000000000000000000000000000000000000000000000000000008152600401610684906125a5565b60405180910390fd5b610698838383610e22565b505050565b6106b8838383604051806020016040528060008152506108e0565b505050565b6000806106c98361111b565b9050600073ffffffffffffffffffffffffffffffffffffffff168173ffffffffffffffffffffffffffffffffffffffff160361073a576040517f08c379a000000000000000000000000000000000000000000000000000000000815260040161073190612611565b60405180910390fd5b80915050919050565b60008073ffffffffffffffffffffffffffffffffffffffff168273ffffffffffffffffffffffffffffffffffffffff16036107b3576040517f08c379a00000000000000000000000000000000000000000000000000000000081526004016107aa906126a3565b60405180910390fd5b600360008373ffffffffffffffffffffffffffffffffffffffff1673ffffffffffffffffffffffffffffffffffffffff168152602001908152602001600020549050919050565b610802611158565b61080c60006111d6565b565b6000600760009054906101000a900473ffffffffffffffffffffffffffffffffffffffff16905090565b606060018054610847906123de565b80601f0160208091040260200160405190810160405280929190818152602001828054610873906123de565b80156108c05780601f10610895576101008083540402835291602001916108c0565b820191906000526020600020905b8154815290600101906020018083116108a357829003601f168201915b5050505050905090565b6108dc6108d5610ccc565b838361129c565b5050565b6108f16108eb610ccc565b83610d8d565b610930576040517f08c379a0000000000000000000000000000000000000000000000000000000008152600401610927906125a5565b60405180910390fd5b61093c84848484611408565b50505050565b606061094d82610c81565b600060066000848152602001908152602001600020805461096d906123de565b80601f0160208091040260200160405190810160405280929190818152602001828054610999906123de565b80156109e65780601f106109bb576101008083540402835291602001916109e6565b820191906000526020600020905b8154815290600101906020018083116109c957829003601f168201915b5050505050905060006109f7611464565b90506000815103610a0c578192505050610a4f565b600082511115610a41578082604051602001610a299291906126ff565b60405160208183030381529060405292505050610a4f565b610a4a8461147b565b925050505b919050565b6000600560008473ffffffffffffffffffffffffffffffffffffffff1673ffffffffffffffffffffffffffffffffffffffff16815260200190815260200160002060008373ffffffffffffffffffffffffffffffffffffffff1673ffffffffffffffffffffffffffffffffffffffff16815260200190815260200160002060009054906101000a900460ff16905092915050565b610af0611158565b600073ffffffffffffffffffffffffffffffffffffffff168173ffffffffffffffffffffffffffffffffffffffff1603610b5f576040517f08c379a0000000000000000000000000000000000000000000000000000000008152600401610b5690612795565b60405180910390fd5b610b68816111d6565b50565b60006001600984604051610b7f91906127b5565b908152602001604051809103902060009054906101000a900460ff1660ff1603610ba857600080fd5b6001600984604051610bba91906127b5565b908152602001604051809103902060006101000a81548160ff021916908360ff160217905550610bea60086114e3565b6000610bf660086114f9565b9050610c028582611507565b610c0c8184611724565b809150509392505050565b60007f01ffc9a7000000000000000000000000000000000000000000000000000000007bffffffffffffffffffffffffffffffffffffffffffffffffffffffff1916827bffffffffffffffffffffffffffffffffffffffffffffffffffffffff1916149050919050565b610c8a81611791565b610cc9576040517f08c379a0000000000000000000000000000000000000000000000000000000008152600401610cc090612611565b60405180910390fd5b50565b600033905090565b816004600083815260200190815260200160002060006101000a81548173ffffffffffffffffffffffffffffffffffffffff021916908373ffffffffffffffffffffffffffffffffffffffff160217905550808273ffffffffffffffffffffffffffffffffffffffff16610d47836106bd565b73ffffffffffffffffffffffffffffffffffffffff167f8c5be1e5ebec7d5bd14f71427d1e84f3dd0314c0f7b2291e5b200ac8c7c3b92560405160405180910390a45050565b600080610d99836106bd565b90508073ffffffffffffffffffffffffffffffffffffffff168473ffffffffffffffffffffffffffffffffffffffff161480610ddb5750610dda8185610a54565b5b80610e1957508373ffffffffffffffffffffffffffffffffffffffff16610e01846104e0565b73ffffffffffffffffffffffffffffffffffffffff16145b91505092915050565b8273ffffffffffffffffffffffffffffffffffffffff16610e42826106bd565b73ffffffffffffffffffffffffffffffffffffffff1614610e98576040517f08c379a0000000000000000000000000000000000000000000000000000000008152600401610e8f9061283e565b60405180910390fd5b600073ffffffffffffffffffffffffffffffffffffffff168273ffffffffffffffffffffffffffffffffffffffff1603610f07576040517f08c379a0000000000000000000000000000000000000000000000000000000008152600401610efe906128d0565b60405180910390fd5b610f1483838360016117d2565b8273ffffffffffffffffffffffffffffffffffffffff16610f34826106bd565b73ffffffffffffffffffffffffffffffffffffffff1614610f8a576040517f08c379a0000000000000000000000000000000000000000000000000000000008152600401610f819061283e565b60405180910390fd5b6004600082815260200190815260200160002060006101000a81549073ffffffffffffffffffffffffffffffffffffffff02191690556001600360008573ffffffffffffffffffffffffffffffffffffffff1673ffffffffffffffffffffffffffffffffffffffff168152602001908152602001600020600082825403925050819055506001600360008473ffffffffffffffffffffffffffffffffffffffff1673ffffffffffffffffffffffffffffffffffffffff16815260200190815260200160002060008282540192505081905550816002600083815260200190815260200160002060006101000a81548173ffffffffffffffffffffffffffffffffffffffff021916908373ffffffffffffffffffffffffffffffffffffffff160217905550808273ffffffffffffffffffffffffffffffffffffffff168473ffffffffffffffffffffffffffffffffffffffff167fddf252ad1be2c89b69c2b068fc378daa952ba7f163c4a11628f55a4df523b3ef60405160405180910390a461111683838360016118f8565b505050565b60006002600083815260200190815260200160002060009054906101000a900473ffffffffffffffffffffffffffffffffffffffff169050919050565b611160610ccc565b73ffffffffffffffffffffffffffffffffffffffff1661117e61080e565b73ffffffffffffffffffffffffffffffffffffffff16146111d4576040517f08c379a00000000000000000000000000000000000000000000000000000000081526004016111cb9061293c565b60405180910390fd5b565b6000600760009054906101000a900473ffffffffffffffffffffffffffffffffffffffff16905081600760006101000a81548173ffffffffffffffffffffffffffffffffffffffff021916908373ffffffffffffffffffffffffffffffffffffffff1602179055508173ffffffffffffffffffffffffffffffffffffffff168173ffffffffffffffffffffffffffffffffffffffff167f8be0079c531659141344cd1fd0a4f28419497f9722a3daafe3b4186f6b6457e060405160405180910390a35050565b8173ffffffffffffffffffffffffffffffffffffffff168373ffffffffffffffffffffffffffffffffffffffff160361130a576040517f08c379a0000000000000000000000000000000000000000000000000000000008152600401611301906129a8565b60405180910390fd5b80600560008573ffffffffffffffffffffffffffffffffffffffff1673ffffffffffffffffffffffffffffffffffffffff16815260200190815260200160002060008473ffffffffffffffffffffffffffffffffffffffff1673ffffffffffffffffffffffffffffffffffffffff16815260200190815260200160002060006101000a81548160ff0219169083151502179055508173ffffffffffffffffffffffffffffffffffffffff168373ffffffffffffffffffffffffffffffffffffffff167f17307eab39ab6107e8899845ad3d59bd9653f200f220920489ca2b5937696c31836040516113fb9190611d7d565b60405180910390a3505050565b611413848484610e22565b61141f848484846118fe565b61145e576040517f08c379a000000000000000000000000000000000000000000000000000000000815260040161145590612a3a565b60405180910390fd5b50505050565b606060405180602001604052806000815250905090565b606061148682610c81565b6000611490611464565b905060008151116114b057604051806020016040528060008152506114db565b806114ba84611a85565b6040516020016114cb9291906126ff565b6040516020818303038152906040525b915050919050565b6001816000016000828254019250508190555050565b600081600001549050919050565b600073ffffffffffffffffffffffffffffffffffffffff168273ffffffffffffffffffffffffffffffffffffffff1603611576576040517f08c379a000000000000000000000000000000000000000000000000000000000815260040161156d90612aa6565b60405180910390fd5b61157f81611791565b156115bf576040517f08c379a00000000000000000000000000000000000000000000000000000000081526004016115b690612b12565b60405180910390fd5b6115cd6000838360016117d2565b6115d681611791565b15611616576040517f08c379a000000000000000000000000000000000000000000000000000000000815260040161160d90612b12565b60405180910390fd5b6001600360008473ffffffffffffffffffffffffffffffffffffffff1673ffffffffffffffffffffffffffffffffffffffff16815260200190815260200160002060008282540192505081905550816002600083815260200190815260200160002060006101000a81548173ffffffffffffffffffffffffffffffffffffffff021916908373ffffffffffffffffffffffffffffffffffffffff160217905550808273ffffffffffffffffffffffffffffffffffffffff16600073ffffffffffffffffffffffffffffffffffffffff167fddf252ad1be2c89b69c2b068fc378daa952ba7f163c4a11628f55a4df523b3ef60405160405180910390a46117206000838360016118f8565b5050565b61172d82611791565b61176c576040517f08c379a000000000000000000000000000000000000000000000000000000000815260040161176390612ba4565b60405180910390fd5b8060066000848152602001908152602001600020908161178c9190612d70565b505050565b60008073ffffffffffffffffffffffffffffffffffffffff166117b38361111b565b73ffffffffffffffffffffffffffffffffffffffff1614159050919050565b60018111156118f257600073ffffffffffffffffffffffffffffffffffffffff168473ffffffffffffffffffffffffffffffffffffffff16146118665780600360008673ffffffffffffffffffffffffffffffffffffffff1673ffffffffffffffffffffffffffffffffffffffff168152602001908152602001600020600082825461185e9190612e71565b925050819055505b600073ffffffffffffffffffffffffffffffffffffffff168373ffffffffffffffffffffffffffffffffffffffff16146118f15780600360008573ffffffffffffffffffffffffffffffffffffffff1673ffffffffffffffffffffffffffffffffffffffff16815260200190815260200160002060008282546118e99190612ea5565b925050819055505b5b50505050565b50505050565b600061191f8473ffffffffffffffffffffffffffffffffffffffff16611b53565b15611a78578373ffffffffffffffffffffffffffffffffffffffff1663150b7a02611948610ccc565b8786866040518563ffffffff1660e01b815260040161196a9493929190612f2e565b6020604051808303816000875af19250505080156119a657506040513d601f19601f820116820180604052508101906119a39190612f8f565b60015b611a28573d80600081146119d6576040519150601f19603f3d011682016040523d82523d6000602084013e6119db565b606091505b506000815103611a20576040517f08c379a0000000000000000000000000000000000000000000000000000000008152600401611a1790612a3a565b60405180910390fd5b805181602001fd5b63150b7a0260e01b7bffffffffffffffffffffffffffffffffffffffffffffffffffffffff1916817bffffffffffffffffffffffffffffffffffffffffffffffffffffffff191614915050611a7d565b600190505b949350505050565b606060006001611a9484611b76565b01905060008167ffffffffffffffff811115611ab357611ab2612095565b5b6040519080825280601f01601f191660200182016040528015611ae55781602001600182028036833780820191505090505b509050600082602001820190505b600115611b48578080600190039150507f3031323334353637383961626364656600000000000000000000000000000000600a86061a8153600a8581611b3c57611b3b612fbc565b5b04945060008503611af3575b819350505050919050565b6000808273ffffffffffffffffffffffffffffffffffffffff163b119050919050565b600080600090507a184f03e93ff9f4daa797ed6e38ed64bf6a1f0100000000000000008310611bd4577a184f03e93ff9f4daa797ed6e38ed64bf6a1f0100000000000000008381611bca57611bc9612fbc565b5b0492506040810190505b6d04ee2d6d415b85acef81000000008310611c11576d04ee2d6d415b85acef81000000008381611c0757611c06612fbc565b5b0492506020810190505b662386f26fc100008310611c4057662386f26fc100008381611c3657611c35612fbc565b5b0492506010810190505b6305f5e1008310611c69576305f5e1008381611c5f57611c5e612fbc565b5b0492506008810190505b6127108310611c8e576127108381611c8457611c83612fbc565b5b0492506004810190505b60648310611cb15760648381611ca757611ca6612fbc565b5b0492506002810190505b600a8310611cc0576001810190505b80915050919050565b6000604051905090565b600080fd5b600080fd5b60007fffffffff0000000000000000000000000000000000000000000000000000000082169050919050565b611d1281611cdd565b8114611d1d57600080fd5b50565b600081359050611d2f81611d09565b92915050565b600060208284031215611d4b57611d4a611cd3565b5b6000611d5984828501611d20565b91505092915050565b60008115159050919050565b611d7781611d62565b82525050565b6000602082019050611d926000830184611d6e565b92915050565b600081519050919050565b600082825260208201905092915050565b60005b83811015611dd2578082015181840152602081019050611db7565b60008484015250505050565b6000601f19601f8301169050919050565b6000611dfa82611d98565b611e048185611da3565b9350611e14818560208601611db4565b611e1d81611dde565b840191505092915050565b60006020820190508181036000830152611e428184611def565b905092915050565b6000819050919050565b611e5d81611e4a565b8114611e6857600080fd5b50565b600081359050611e7a81611e54565b92915050565b600060208284031215611e9657611e95611cd3565b5b6000611ea484828501611e6b565b91505092915050565b600073ffffffffffffffffffffffffffffffffffffffff82169050919050565b6000611ed882611ead565b9050919050565b611ee881611ecd565b82525050565b6000602082019050611f036000830184611edf565b92915050565b611f1281611ecd565b8114611f1d57600080fd5b50565b600081359050611f2f81611f09565b92915050565b60008060408385031215611f4c57611f4b611cd3565b5b6000611f5a85828601611f20565b9250506020611f6b85828601611e6b565b9150509250929050565b600080600060608486031215611f8e57611f8d611cd3565b5b6000611f9c86828701611f20565b9350506020611fad86828701611f20565b9250506040611fbe86828701611e6b565b9150509250925092565b600060208284031215611fde57611fdd611cd3565b5b6000611fec84828501611f20565b91505092915050565b611ffe81611e4a565b82525050565b60006020820190506120196000830184611ff5565b92915050565b61202881611d62565b811461203357600080fd5b50565b6000813590506120458161201f565b92915050565b6000806040838503121561206257612061611cd3565b5b600061207085828601611f20565b925050602061208185828601612036565b9150509250929050565b600080fd5b600080fd5b7f4e487b7100000000000000000000000000000000000000000000000000000000600052604160045260246000fd5b6120cd82611dde565b810181811067ffffffffffffffff821117156120ec576120eb612095565b5b80604052505050565b60006120ff611cc9565b905061210b82826120c4565b919050565b600067ffffffffffffffff82111561212b5761212a612095565b5b61213482611dde565b9050602081019050919050565b82818337600083830152505050565b600061216361215e84612110565b6120f5565b90508281526020810184848401111561217f5761217e612090565b5b61218a848285612141565b509392505050565b600082601f8301126121a7576121a661208b565b5b81356121b7848260208601612150565b91505092915050565b600080600080608085870312156121da576121d9611cd3565b5b60006121e887828801611f20565b94505060206121f987828801611f20565b935050604061220a87828801611e6b565b925050606085013567ffffffffffffffff81111561222b5761222a611cd8565b5b61223787828801612192565b91505092959194509250565b6000806040838503121561225a57612259611cd3565b5b600061226885828601611f20565b925050602061227985828601611f20565b9150509250929050565b600067ffffffffffffffff82111561229e5761229d612095565b5b6122a782611dde565b9050602081019050919050565b60006122c76122c284612283565b6120f5565b9050828152602081018484840111156122e3576122e2612090565b5b6122ee848285612141565b509392505050565b600082601f83011261230b5761230a61208b565b5b813561231b8482602086016122b4565b91505092915050565b60008060006060848603121561233d5761233c611cd3565b5b600061234b86828701611f20565b935050602084013567ffffffffffffffff81111561236c5761236b611cd8565b5b612378868287016122f6565b925050604084013567ffffffffffffffff81111561239957612398611cd8565b5b6123a5868287016122f6565b9150509250925092565b7f4e487b7100000000000000000000000000000000000000000000000000000000600052602260045260246000fd5b600060028204905060018216806123f657607f821691505b602082108103612409576124086123af565b5b50919050565b7f4552433732313a20617070726f76616c20746f2063757272656e74206f776e6560008201527f7200000000000000000000000000000000000000000000000000000000000000602082015250565b600061246b602183611da3565b91506124768261240f565b604082019050919050565b6000602082019050818103600083015261249a8161245e565b9050919050565b7f4552433732313a20617070726f76652063616c6c6572206973206e6f7420746f60008201527f6b656e206f776e6572206f7220617070726f76656420666f7220616c6c000000602082015250565b60006124fd603d83611da3565b9150612508826124a1565b604082019050919050565b6000602082019050818103600083015261252c816124f0565b9050919050565b7f4552433732313a2063616c6c6572206973206e6f7420746f6b656e206f776e6560008201527f72206f7220617070726f76656400000000000000000000000000000000000000602082015250565b600061258f602d83611da3565b915061259a82612533565b604082019050919050565b600060208201905081810360008301526125be81612582565b9050919050565b7f4552433732313a20696e76616c696420746f6b656e2049440000000000000000600082015250565b60006125fb601883611da3565b9150612606826125c5565b602082019050919050565b6000602082019050818103600083015261262a816125ee565b9050919050565b7f4552433732313a2061646472657373207a65726f206973206e6f74206120766160008201527f6c6964206f776e65720000000000000000000000000000000000000000000000602082015250565b600061268d602983611da3565b915061269882612631565b604082019050919050565b600060208201905081810360008301526126bc81612680565b9050919050565b600081905092915050565b60006126d982611d98565b6126e381856126c3565b93506126f3818560208601611db4565b80840191505092915050565b600061270b82856126ce565b915061271782846126ce565b91508190509392505050565b7f4f776e61626c653a206e6577206f776e657220697320746865207a65726f206160008201527f6464726573730000000000000000000000000000000000000000000000000000602082015250565b600061277f602683611da3565b915061278a82612723565b604082019050919050565b600060208201905081810360008301526127ae81612772565b9050919050565b60006127c182846126ce565b915081905092915050565b7f4552433732313a207472616e736665722066726f6d20696e636f72726563742060008201527f6f776e6572000000000000000000000000000000000000000000000000000000602082015250565b6000612828602583611da3565b9150612833826127cc565b604082019050919050565b600060208201905081810360008301526128578161281b565b9050919050565b7f4552433732313a207472616e7366657220746f20746865207a65726f2061646460008201527f7265737300000000000000000000000000000000000000000000000000000000602082015250565b60006128ba602483611da3565b91506128c58261285e565b604082019050919050565b600060208201905081810360008301526128e9816128ad565b9050919050565b7f4f776e61626c653a2063616c6c6572206973206e6f7420746865206f776e6572600082015250565b6000612926602083611da3565b9150612931826128f0565b602082019050919050565b6000602082019050818103600083015261295581612919565b9050919050565b7f4552433732313a20617070726f766520746f2063616c6c657200000000000000600082015250565b6000612992601983611da3565b915061299d8261295c565b602082019050919050565b600060208201905081810360008301526129c181612985565b9050919050565b7f4552433732313a207472616e7366657220746f206e6f6e20455243373231526560008201527f63656976657220696d706c656d656e7465720000000000000000000000000000602082015250565b6000612a24603283611da3565b9150612a2f826129c8565b604082019050919050565b60006020820190508181036000830152612a5381612a17565b9050919050565b7f4552433732313a206d696e7420746f20746865207a65726f2061646472657373600082015250565b6000612a90602083611da3565b9150612a9b82612a5a565b602082019050919050565b60006020820190508181036000830152612abf81612a83565b9050919050565b7f4552433732313a20746f6b656e20616c7265616479206d696e74656400000000600082015250565b6000612afc601c83611da3565b9150612b0782612ac6565b602082019050919050565b60006020820190508181036000830152612b2b81612aef565b9050919050565b7f45524337323155524953746f726167653a2055524920736574206f66206e6f6e60008201527f6578697374656e7420746f6b656e000000000000000000000000000000000000602082015250565b6000612b8e602e83611da3565b9150612b9982612b32565b604082019050919050565b60006020820190508181036000830152612bbd81612b81565b9050919050565b60008190508160005260206000209050919050565b60006020601f8301049050919050565b600082821b905092915050565b600060088302612c267fffffffffffffffffffffffffffffffffffffffffffffffffffffffffffffffff82612be9565b612c308683612be9565b95508019841693508086168417925050509392505050565b6000819050919050565b6000612c6d612c68612c6384611e4a565b612c48565b611e4a565b9050919050565b6000819050919050565b612c8783612c52565b612c9b612c9382612c74565b848454612bf6565b825550505050565b600090565b612cb0612ca3565b612cbb818484612c7e565b505050565b5b81811015612cdf57612cd4600082612ca8565b600181019050612cc1565b5050565b601f821115612d2457612cf581612bc4565b612cfe84612bd9565b81016020851015612d0d578190505b612d21612d1985612bd9565b830182612cc0565b50505b505050565b600082821c905092915050565b6000612d4760001984600802612d29565b1980831691505092915050565b6000612d608383612d36565b9150826002028217905092915050565b612d7982611d98565b67ffffffffffffffff811115612d9257612d91612095565b5b612d9c82546123de565b612da7828285612ce3565b600060209050601f831160018114612dda5760008415612dc8578287015190505b612dd28582612d54565b865550612e3a565b601f198416612de886612bc4565b60005b82811015612e1057848901518255600182019150602085019450602081019050612deb565b86831015612e2d5784890151612e29601f891682612d36565b8355505b6001600288020188555050505b505050505050565b7f4e487b7100000000000000000000000000000000000000000000000000000000600052601160045260246000fd5b6000612e7c82611e4a565b9150612e8783611e4a565b9250828203905081811115612e9f57612e9e612e42565b5b92915050565b6000612eb082611e4a565b9150612ebb83611e4a565b9250828201905080821115612ed357612ed2612e42565b5b92915050565b600081519050919050565b600082825260208201905092915050565b6000612f0082612ed9565b612f0a8185612ee4565b9350612f1a818560208601611db4565b612f2381611dde565b840191505092915050565b6000608082019050612f436000830187611edf565b612f506020830186611edf565b612f5d6040830185611ff5565b8181036060830152612f6f8184612ef5565b905095945050505050565b600081519050612f8981611d09565b92915050565b600060208284031215612fa557612fa4611cd3565b5b6000612fb384828501612f7a565b91505092915050565b7f4e487b7100000000000000000000000000000000000000000000000000000000600052601260045260246000fdfea264697066735822122046585427f3277c0e0575ea74edd9014020a464aa32a318c6aa2b9c298c47b7ec64736f6c63430008120033",
  "immutableReferences": {},
  "source": "// SPDX-License-Identifier: MIT\npragma solidity ^0.8.9;\n\nimport \"@openzeppelin/contracts/token/ERC721/extensions/ERC721URIStorage.sol\";\nimport \"@openzeppelin/contracts/utils/Counters.sol\";\nimport \"@openzeppelin/contracts/access/Ownable.sol\";\n\ncontract UniqueAssetNFT is ERC721URIStorage, Ownable {\n    using Counters for Counters.Counter;\n    Counters.Counter private _tokenIds;\n    mapping(string => uint8) hashes;\n\n    constructor() ERC721(\"UniqueAssetNFT\", \"UAN\") {}\n\n    function mintAssetNFT(address recipient, string memory hash, string memory tokenURI)\n        public\n        returns (uint256)\n    {\n        //If document is already present\n        require(hashes[hash] != 1);\n        hashes[hash] = 1;\n        _tokenIds.increment();\n        uint256 newItemId = _tokenIds.current();\n        _mint(recipient, newItemId);\n        _setTokenURI(newItemId, tokenURI);\n\n        return newItemId;\n    }\n}\n",
  "sourcePath": "/Users/kumargauravsingh/dev/projects/alphaVault/UniqueAssetVerification/contracts/UniqueAssetNFT.sol",
  "compiler": {
    "name": "solc",
    "version": "0.8.18+commit.87f61d96.Emscripten.clang"
  },
  "schemaVersion": "3.4.13",
  "updatedAt": "2023-03-26T02:17:34.806Z",
  "devdoc": {
    "events": {
      "Approval(address,address,uint256)": {
        "details": "Emitted when `owner` enables `approved` to manage the `tokenId` token."
      },
      "ApprovalForAll(address,address,bool)": {
        "details": "Emitted when `owner` enables or disables (`approved`) `operator` to manage all of its assets."
      },
      "Transfer(address,address,uint256)": {
        "details": "Emitted when `tokenId` token is transferred from `from` to `to`."
      }
    },
    "kind": "dev",
    "methods": {
      "approve(address,uint256)": {
        "details": "See {IERC721-approve}."
      },
      "balanceOf(address)": {
        "details": "See {IERC721-balanceOf}."
      },
      "getApproved(uint256)": {
        "details": "See {IERC721-getApproved}."
      },
      "isApprovedForAll(address,address)": {
        "details": "See {IERC721-isApprovedForAll}."
      },
      "name()": {
        "details": "See {IERC721Metadata-name}."
      },
      "owner()": {
        "details": "Returns the address of the current owner."
      },
      "ownerOf(uint256)": {
        "details": "See {IERC721-ownerOf}."
      },
      "renounceOwnership()": {
        "details": "Leaves the contract without owner. It will not be possible to call `onlyOwner` functions anymore. Can only be called by the current owner. NOTE: Renouncing ownership will leave the contract without an owner, thereby removing any functionality that is only available to the owner."
      },
      "safeTransferFrom(address,address,uint256)": {
        "details": "See {IERC721-safeTransferFrom}."
      },
      "safeTransferFrom(address,address,uint256,bytes)": {
        "details": "See {IERC721-safeTransferFrom}."
      },
      "setApprovalForAll(address,bool)": {
        "details": "See {IERC721-setApprovalForAll}."
      },
      "supportsInterface(bytes4)": {
        "details": "See {IERC165-supportsInterface}."
      },
      "symbol()": {
        "details": "See {IERC721Metadata-symbol}."
      },
      "tokenURI(uint256)": {
        "details": "See {IERC721Metadata-tokenURI}."
      },
      "transferFrom(address,address,uint256)": {
        "details": "See {IERC721-transferFrom}."
      },
      "transferOwnership(address)": {
        "details": "Transfers ownership of the contract to a new account (`newOwner`). Can only be called by the current owner."
      }
    },
    "version": 1
  },
  "userdoc": {
    "kind": "user",
    "methods": {},
    "version": 1
  }
}